:060000000A128A11FC2F18
:10000E00831203131F151F190D280E280A281E0808
:10001E00F300831603131E08F2007308F100720832
:10002E00F00008007008710403191E281F284E28BE
:10003E00F401F40A2D2801300310F00DF10DFF3EEE
:10004E00031D23280130FF007F08F407F11F30281D
:10005E003128222871087302031D37287008720296
:10006E00031C3A283B2841287008F2027108031C31
:10007E00F303F30201300310F10CF00CFF3E031DED
:10008E0042280130F402031D4D284E2831287308F2
:10009E00F1007208F0000800F401F5017008710417
:1000AE0003195A285B289228F601F60A69280130AE
:1000BE000310F00DF10DFF3E031D5F280130FF0010
:1000CE007F08F607F11F6C286D285E28013003109B
:1000DE00F40DF50DFF3E031D6E2871087302031D0E
:1000EE007A2870087202031C7D287E2885287008E5
:1000FE00F2027108031CF303F302741401300310AF
:10010E00F10CF00CFF3E031D86280130F602031D94
:10011E00912892286D287508F1007408F0000800E7
:10012E00C330F500CD30F400F40B9B28F50B9B2863
:10013E00F00133300A128A1591270A128A111B30E8
:10014E00F5009E30F400F40BAA28F50BAA28000047
:10015E00F00133300A128A1591270A128A11A6303D
:10016E00F400F40BB8280000F00133300A128A159F
:10017E0091270A128A11C328C4280000F0013830D2
:10018E000A128A1591270A128A11A630F400F40B6E
:10019E00CE280000F00101300A128A1591270A12AA
:1001AE008A110430F5003D30F400F40BDC28F50B19
:1001BE00DC28E128F0010C300A128A1591270A1268
:1001CE008A11A630F400F40BEA2800000800031090
:1001DE0083120313560D570DDD005D08031DF8281D
:1001EE00F92802290030D7000030D6000030D500A3
:1001FE000030D40065295408D8005508D900560897
:10020E00DA005708DB001F300310DB0CDA0CD90CB8
:10021E00D80CFF3E031D0B295808DC00D617FF3003
:10022E00D405FF30D505FF30D6050030D705963002
:10023E00DD02DD1F232924293E295D08803A973EE1
:10024E0003182A292B292C29F92801300310D70C41
:10025E00D60CD50CD40CFF3E031D2D290130FF000A
:10026E007F08DD07031D3C293D292C295529203007
:10027E005D02031C432944295029F9280130D80076
:10028E000310D40DD50DD60DD70DD80B472901303F
:10029E00DD025D08031D5429552945295C08031903
:1002AE0059295A296529D409D509D609D709D40A55
:1002BE000319D50A0319D60A0319D70A0800F8003C
:1002CE00780803196B296C298029F31F6F2970296F
:1002DE0080297009FA007109FB007209FC0073098C
:1002EE00FD00FA0A0319FB0A0319FC0A0319FD0A99
:1002FE0088297308FD007208FC007108FB00700865
:10030E00FA007308720471047004031D8F2990297A
:10031E0099290030F3000030F2000030F100003077
:10032E00F0001D2A9630F900A9290130FF007F0840
:10033E00F90701300310FD0CFC0CFB0CFA0CFF3E10
:10034E00031DA129FE307D05031DAE29AF299C2971
:10035E00CB290130FF007F08F9070130FA07003082
:10036E0003180130FB07003003180130FC07003082
:10037E0003180130FD0701300310FD0CFC0CFB0CC3
:10038E00FA0CFF3E031DC329FF307D05031DD02946
:10039E00D129B029DD290130F9020130F400031012
:1003AE00FA0DFB0DFC0DFD0DF40BD629FC1BE029FF
:1003BE00E129E729023079020318E629E729D22933
:1003CE007918EA29EB29F329FF30FA05FF30FB05EE
:1003DE007F30FC05FF30FD050310F90C7908F400A1
:1003EE00F501F601F70118300310F40DF50DF60DB9
:1003FE00F70DFF3E031DFB297408FA047508FB0474
:10040E007608FC047708FD04780803190F2A102AD1
:10041E00152AF31F132A142A152AFD177D08F30037
:10042E007C08F2007B08F1007A08F00008000A123E
:10043E008A1575270A128A118030F40001300A12CB
:10044E008A15D8270A128A110A128A1107200A124F
:10045E008A11710883120313E3007008E200620828
:10046E00F0006308F100F201F30100300A128A1164
:10047E0066210A128A11730883120313A7007208E9
:10048E00A6007108A5007008A4004430A3007A30BD
:10049E00A2000030A1000030A0000A128A11E8224A
:1004AE000A128A11831203132308C1002208C00006
:1004BE002108BF002008BE004030BD009C30BC00AB
:1004CE002830BB00F630BA000A128A11B7240A127D
:1004DE008A11831203133D08E1003C08E0003B083B
:1004EE00DF003A08DE006108C1006008C0005F0846
:1004FE00BF005E08BE004130BD00A030BC00003021
:10050E00BB000030BA000A128A11B7240A128A11EF
:10051E00831203133D08D7003C08D6003B08D500D4
:10052E003A08D4000A128A11EE200A128A11831296
:10053E0003135508E3005408E200C030F4001330F2
:10054E000A128A15D8270A128A11CC30F4001E30EE
:10055E000A128A15D8270A128A11CA30F7000A30F1
:10056E00F0000030F100831203136308F3006208F9
:10057E00F2000A128A1153200A128A117008303EB4
:10058E000A128A1580270A128A11CB30F7000A3018
:10059E00F0000030F100831203136308F3006208C9
:1005AE00F2000A128A1119200A128A117008303EBE
:1005BE000A128A1580270A128A112B2A0A128A1108
:1005CE0000288312031327088039B1002708A800DA
:1005DE002807B800A61FF42AF52AF62A3814380878
:1005EE000319FA2AFB2A0B2B380A031DFF2A002BAC
:1005FE00082B0030A7000030A6000030A500003008
:10060E00A400A617A701132B0030A7000030A600E8
:10061E000030A5000030A40023088039FF007F08B9
:10062E00B1062308A8002807B900A21F1F2B202BF4
:10063E00212B391439080319252B262B362B390A71
:10064E00031D2A2B2B2B332B0030A3000030A200CE
:10065E000030A1000030A000A217A3013E2B0030F5
:10066E00A3000030A2000030A1000030A00023083B
:10067E00220421042004031D452B462B5F2B003042
:10068E00A7000030A6000030A5000030A400803086
:10069E00A6047F30A7043108FF007F08A7042708AF
:1006AE00A3002608A2002508A1002408A000B62C4D
:1006BE003808031D632B642B6D2B0030A300003014
:1006CE00A2000030A1000030A000B62C3808A8000F
:1006DE00A9012908AB0039082802AA00031CAB03A4
:1006EE002A087F3EB2002B080318013E003EB300DD
:1006FE002708B0002608AF002508AE002408AD007C
:10070E000030A7000030A6000030A5000030A40085
:10071E000030B7000030B6000030B5000030B40035
:10072E00B901E32B390803199D2B9E2BBE2B0130EB
:10073E00A8000310AD0DAE0DAF0DB00DA80BA02B84
:10074E000130A8000310A40DA50DA60DA70DA80B32
:10075E00A92BB71FB32BB42BB52B24140130A80033
:10076E000310B40DB50DB60DB70DA80BB72B23089E
:10077E003002031DCC2B22082F02031DCC2B210887
:10078E002E02031DCC2B20082D02031CCF2BD02BA9
:10079E00DF2B37172008AD022108031C210FAE02F4
:1007AE002208031C220FAF022308031C230FB002E2
:1007BE000130FF007F08B9071A303902031CE82BFD
:1007CE00E92B992B30082F042E042D040319F02B3E
:1007DE00F12B102C3414102C0130A8000310A40D92
:1007EE00A50DA60DA70DA80BF52BB71FFF2B002CE3
:1007FE00012C24140130A8000310B40DB50DB60D54
:10080E00B70DA80B032CFF30B2070318B30AFF3045
:10081E00B307A61F132C142CF32BB901B71F182CDA
:10082E00192C352CFF303405A800FF303505A900F2
:10083E00FF303605AA007F303705AB002B082A049F
:10084E002904280403192C2C2D2C302CB901B90A9B
:10085E00352C241C332C342C352C2D2C3908031913
:10086E00392C3A2C6B2C0130A407003003180130C0
:10087E00A507003003180130A60700300318013019
:10088E00A707271C4B2C4C2C6B2C2408A8002508E2
:10089E00A9002608AA002708AB000130AC002B0DDA
:1008AE00AB0CAA0CA90CA80CAC0B562C2B08A70051
:1008BE002A08A6002908A5002808A4000130B207BE
:1008CE000318B30A0030B3073308803AFF008030B4
:1008DE007F02031D742CFF303202031C772C782C00
:1008EE00862CFF3083120313B2000030B3000030A9
:1008FE00A7000030A6000030A5000030A40083122F
:10090E0003133308803AFF0080307F02031D912CC1
:10091E00013032020318942C952CA22C831203134F
:10092E00B201B3010030A7000030A6000030A500D0
:10093E000030A400B101831203133208B800381C32
:10094E00A92CAA2CAC2CA617B02C7F30FF007F0848
:10095E00A6053808A8000310280CA700522B080083
:10096E00831203133D088039C7003D08C2004207B9
:10097E00CD00BC1FC32CC42CC52C4D144D0803191F
:10098E00C92CCA2CD92C4D0A031DCE2CCF2CD72CFA
:10099E000030BD000030BC000030BB000030BA009B
:1009AE00BC17E12C0030BD000030BC000030BB0095
:1009BE000030BA0041088039FF007F08C7064108A1
:1009CE00C2004207CC00C01FED2CEE2CEF2C4C14B5
:1009DE004C080319F32CF42C032D4C0A031DF82C90
:1009EE00F92C012D0030C1000030C0000030BF00D6
:1009FE000030BE00C0170B2D0030C1000030C0000B
:100A0E000030BF000030BE004C0803190F2D102D12
:100A1E00152D4D08031D142D152D1E2D0030BD0056
:100A2E000030BC000030BB000030BA00FB2F3A088B
:100A3E00F00040080A128A15B1270A128A117108AD
:100A4E0083120313D3007008D2005208C200C301F0
:100A5E00C401C5014508CB004408CA004308C900BB
:100A6E004208C8005308C200C301C401C5014508AD
:100A7E00D1004408D0004308CF004208CE003B0806
:100A8E00F0003F080A128A15B1270A128A1171085E
:100A9E0083120313D3007008D2005208C200C301A0
:100AAE00C401C5014208C807430803110318013EDB
:100ABE000319622DC907440803110318013E0319D7
:100ACE00692DCA07450803110318013E0319702D3D
:100ADE00CB075308C200C301C401C5014208CE07AB
:100AEE00430803110318013E03197E2DCF07440856
:100AFE0003110318013E0319852DD0074508031174
:100B0E000318013E03198C2DD1073C08F0003E0856
:100B1E000A128A15B1270A128A1171088312031359
:100B2E00D3007008D2005208C200C301C401C5012F
:100B3E004208C807430803110318013E0319A82DE4
:100B4E00C907440803110318013E0319AF2DCA0744
:100B5E00450803110318013E0319B62DCB075308A0
:100B6E00C200C301C401C5014208CE0743080311E8
:100B7E000318013E0319C42DCF07440803110318AF
:100B8E00013E0319CB2DD007450803110318013E72
:100B9E000319D22DD1070830C2000310C80DC90D9C
:100BAE00CA0DCB0DC20BD42D3B08F0003E080A1225
:100BBE008A15B1270A128A11710883120313D30002
:100BCE007008D2005208C2005308C300C401C50108
:100BDE004208C807430803110318013E0319F82DF4
:100BEE00C907440803110318013E0319FF2DCA0754
:100BFE00450803110318013E0319062ECB073A08C8
:100C0E00F0003F080A128A15B1270A128A117108DC
:100C1E0083120313D3007008D2005208C200530887
:100C2E00C300C401C5014208C807430803110318D5
:100C3E00013E0319232EC907440803110318013E70
:100C4E0003192A2ECA07450803110318013E03197A
:100C5E00312ECB070830C2000310C80DC90DCA0DC6
:100C6E00CB0DC20B332E3A08F0003E080A128A153D
:100C7E00B1270A128A11710883120313D300700868
:100C8E00D2005208C2005308C300C401C501420875
:100C9E00C807430803110318013E0319572EC9074D
:100CAE00440803110318013E03195E2ECA074508B6
:100CBE0003110318013E0319652ECB073B08F00004
:100CCE0040080A128A15B1270A128A117108831276
:100CDE000313D3007008D2005208C2005308C30099
:100CEE00C401C5014208CE07430803110318013E93
:100CFE000319822ECF07440803110318013E03196E
:100D0E00892ED007450803110318013E0319902EB2
:100D1E00D1073C08F0003F080A128A15B1270A12C3
:100D2E008A11710883120313D3007008D20052087F
:100D3E00C2005308C300C401C5014208CE074308D0
:100D4E0003110318013E0319AD2ECF0744080311FA
:100D5E000318013E0319B42ED007450803110318DA
:100D6E00013E0319BB2ED1073C08F00040080A12C1
:100D7E008A15B1270A128A11710883120313D30040
:100D8E007008D2005208C2005308C300C401C50146
:100D9E0008300310C20DC30DC40DC50DFF3E031D5B
:100DAE00D02E4208CE07430803110318013E031943
:100DBE00E12ECF07440803110318013E0319E82E54
:100DCE00D007450803110318013E0319EF2ED10772
:100DDE004808C2004908C3004A08C4004B08C500B1
:100DEE0018300310C50CC40CC30CC20CFF3E031DFF
:100DFE00F82E4208CE07430803110318013E0319CB
:100E0E00092FCF07440803110318013E0319102FB1
:100E1E00D007450803110318013E0319172FD107F8
:100E2E000830C2000310C80DC90DCA0DCB0DC20B80
:100E3E00192F4D084C07C200C301C30D4208823E54
:100E4E00D20043080318013EFF3ED3004B2F013062
:100E5E00C2000310CE0DCF0DD00DD10DC20B302F11
:100E6E00CB1F3A2F3B2F3C2F4E140130C2000310E4
:100E7E00C80DC90DCA0DCB0DC20B3E2FFF30D207C8
:100E8E000318D30AFF30D307D01F4E2F4F2F2E2F0C
:100E9E00CC01CB1F532F542F702FFF304805C200AB
:100EAE00FF304905C300FF304A05C4007F304B05B3
:100EBE00C50045084404430442040319672F682FF4
:100ECE006B2FCC01CC0A702F4E1C6E2F6F2F702FF4
:100EDE00682F4C080319742F752FA62F0130CE07DB
:100EEE00003003180130CF07003003180130D0074F
:100EFE00003003180130D107511C862F872FA62FE3
:100F0E004E08C2004F08C3005008C4005108C50067
:100F1E000130C600450DC50CC40CC30CC20CC60B6B
:100F2E00912F4508D1004408D0004308CF00420855
:100F3E00CE000130D2070318D30A0030D30753086E
:100F4E00803AFF0080307F02031DAF2FFF30520228
:100F5E00031CB22FB32FBE2F7F3083120313D10089
:100F6E008030D0000030CF000030CE00EF2F831243
:100F7E0003135308803AFF0080307F02031DC92FF0
:100F8E00013052020318CC2FCD2FD92F00308312EF
:100F9E000313D1000030D0000030CF000030CE005F
:100FAE00C701EF2F831203135208CD00FF30CE0579
:100FBE00FF30CF057F30D0050030D1054D1CE82F16
:100FCE00E92FEA2FD0174D08C2000310420CD100B2
:100FDE004708FF007F08D1045108BD005008BC002F
:100FEE004F08BB004E08BA00080083010A128A118E
:100FFE001E2A08308A000408840A8207003444340A
:10100E00693467346934743461346C342034563442
:10101E006F346C3474346D346534743465347234B6
:10102E00003456346F346C34743461346734653440
:10103E0020343D342034003456346F346C347434E0
:04104E0073340034C3
:101EC600831603139F17831203131F140800831628
:101ED60003138801091189100A128A1197200A1220
:101EE6008A1508000A128A1563270A128A150A1229
:101EF6008A156A270A128A150800F800F001770881
:101F06000A128A1591270A128A15F001F00A780832
:101F16000A128A1591270A128A150800F30070180A
:101F2600952F992F8312031309159C2F83120313E0
:101F36000911730888008914A630F100F10BA12F4E
:101F460000008312031389101B30F2009E30F1004B
:101F5600F10BAB2FF20BAB2F00000800F800F401D9
:101F6600F5017008F200F3017208F6007308F70035
:101F7600781CBE2FBF2FC52F7608F4070318F50A65
:101F86007708F50701300310F60DF70DFF3E031D28
:101F9600C62F0310F80C7808031DD22FD32FBB2FA2
:101FA6007508F1007408F0000800F500F0017408E7
:101FB6000A128A1591270A128A15F32FF001F00AE0
:101FC600750884000A128A1500200A128A150A1258
:101FD6008A1591270A128A150130FF007F08F50736
:101FE600750884000A128A1500200A128A15003A1A
:0A1FF600031DFE2FFF2FE12F08004E
:08400000FF3FFF3FFF3FFF3FC0
:02400E00FB3F76
:00000001FF
